S00C0000434333432E737265631C
S31500000000A00400201D110000A50E00002B11000009
S315000000102B1100002B1100002B1100002B110000EA
S315000000200000000000000000000000002B1100008E
S315000000302B110000000000002B1100002B11000006
S31500000040FFFFFFFFFFFFFFFFFFFFFFFFFFFFFFFFBA
S31500000050FFFFFFFFFFFFFFFFFFFFFFFFFFFFFFFFAA
S31500000060FFFFFFFFFFFFFFFFFFFFFFFFFFFFFFFF9A
S31500000070FFFFFFFFFFFFFFFFFFFFFFFFFFFFFFFF8A
S3150000008010B5054C237833B9044B13B1044800E08E
S3150000009000BF0123237010BD2800002000000000CF
S315000000A07015000008B5034B1BB10349034800E077
S315000000B000BF08BD000000002C00002070150000E5
S315000000C080B582B000AF03460A46FB8013467B71BB
S315000000D0FB88B3F5806F0FD0FB8840F20342934252
S315000000E00AD0FB8840F20442934205D00D4B0E4ADB
S315000000F016210E4800F0FCFD7B79002B08D07B7999
S31500000100012B05D00A4B084A1A21084800F0F0FDD9
S315000001107A79FB881946074800F046FA00BF083787
S31500000120BD4680BDC01200007C13000024130000F1
S31500000130401300004400002080B584B000AF0346A1
S31500000140FB80FB88B3F5806F0FD0FB8840F203423B
S3150000015093420AD0FB8840F20442934205D00D4BED
S315000001600D4A28210D4800F0C3FD07F10E02FB8859
S3150000017019460B4800F0B6F9BB7B002B02D00023D2
S31500000180FB7301E00123FB73FB7B18461037BD466A
S3150000019080BD00BFC01200008C13000024130000B5
S315000001A04400002080B500AF00214FF48060FFF7C7
S315000001B087FF002140F20340FFF782FF002140F253
S315000001C00440FFF77DFF4FF48060FFF7B5FF03465D
S315000001D01A461D4B1A7040F20340FFF7ADFF034667
S315000001E01A46194B1A7040F20440FFF7A5FF034662
S315000001F01A46154B1A7001214FF48060FFF760FF15
S31500000200012140F20340FFF75BFF012140F2044069
S31500000210FFF756FF4FF48060FFF78EFF03461A463E
S31500000220094B1A7040F20340FFF786FF03461A4651
S31500000230054B1A7040F20440FFF77EFF03461A464C
S31500000240014B1A7000BF80BD0000002080B586B04B
S3150000025000AF0346FB80FB88042B08D0FB88052BE8
S3150000026005D0154B154A1A21154800F041FD4FF4EB
S315000002707A71012000F046FD07F10F02FB8819464E
S31500000280104800F02FF93B6901333B61FB7B002BE3
S31500000290EDD03B69132B07D93B6941F28832934273
S315000002A002D80123FB7501E00023FB75FB7D184690
S315000002B01837BD4680BD00BFA4130000041400001B
S315000002C0E81300004400002080B500AF0420FFF7CB
S315000002D0BDFF03461A46054B1A700520FFF7B6FF09
S315000002E003461A46014B1A7000BF80BD010000206C
S315000002F080B500AFFFF756FFFFF7E6FF00BF80BDF2
S3150000030080B582B000AF0346FB71FB79022B05D1A5
S31500000310044B5B681946044800F090F800BF0837A4
S31500000320BD4680BD201400004400002080B500AF0B
S31500000330FFF7DEFF0023184680BDFFFF80B483B0C1
S3150000034000AF0346FB800A49FB881B0A9BB21A468C
S31500000350FB88DBB21201134451F82330C3F3400388
S31500000360DBB218460C37BD465DF8047B704700BF0C
S315000003700008084080B485B000AF0023FB60EFF3AF
S3150000038010837B607B68FB600123BB60BB6883F3E3
S31500000390108800BF0D4B1B68002B05D10C4B0022AB
S315000003A0DA700B4B4022DA70084B1B680133074AA0
S315000003B01360FB683B603B6883F3108800BF00BF97
S315000003C01437BD465DF8047B704700BF8C000020E3
S315000003D0000D084080B485B000AF0023FB60EFF34A
S315000003E010837B607B68FB600123BB60BB6883F383
S315000003F0108800BF0F4B1B68002B04D00D4B1B68E9
S31500000400013B0C4A13600B4B1B68002B05D10A4BB2
S315000004100022DA70084B8022DA70FB683B603B688A
S3150000042083F3108800BF00BF1437BD465DF8047B18
S31500000430704700BF8C000020000D084080B584B0D6
S3150000044000AF786039607B68FB60FB68044A1A601D
S31500000450386800F0C9F9002318461037BD4680BD3C
S3150000046054524F5080B485B000AF78607B68FB6013
S31500000470FB6800221A60002318461437BD465DF853
S31500000480047B704780B582B000AF78603960386809
S3150000049000F0AAF9002318460837BD4680BD80B58E
S315000004A088B000AFF8600B467A607B817B89BB829F
S315000004B07B683B6101233B8307F11003FB6107F176
S315000004C01803184600F03CFAFFF754FF7B89796859
S315000004D0184600F0F9F9FFF77DFF0023184620378C
S315000004E0BD4680BD80B584B000AFF8600B467A602B
S315000004F07B817B891846FFF721FF0346DAB27B68CA
S315000005001A70002318461037BD4680BD80B487B0E8
S3150000051000AFF8600B467A607B817B891B0A9BB231
S31500000520DBB25B0103F1804303F500237B617B694A
S315000005305B689AB27B681A80002318461C37BD4652
S315000005405DF8047B704780B487B000AFF86008465A
S3150000055011461A4603467B810B463B811346FB80B8
S315000005603A89FB881340FB82B7F90830DB431AB29D
S31500000570B7F9063013401BB2BB827B891B0A9BB2BC
S31500000580DBB25B0103F1804303F500233B61BB8AC9
S315000005901A04FB8A1A433B699A60002318461C37E3
S315000005A0BD465DF8047B704780B487B000AF7860C5
S315000005B00B467B8013467B700023FB820023BB82A5
S315000005C07B8823F0FF037B827B88DBB23B823B8AFE
S315000005D0012202FA03F3FB817B78002B02D1FB890F
S315000005E0BB8201E0FB89FB827B8A1B0A9BB2DBB2E2
S315000005F05B0103F1804303F50023BB60BB8A1A0449
S31500000600FB8A1A43BB689A60002318461C37BD460E
S315000006105DF8047B704780B48BB000AFF860084685
S3150000062011461A4603467B810B463B811346FB80E7
S315000006307B891B0A9BB2DBB25B0103F1804303F5A6
S3150000064000237B627B6A1B683B623A89FB88134006
S315000006509BB2FB613B89DA43FB881340BB613B6A73
S315000006607B617A69FB6913437B61BB69DB437A690A
S3150000067013407B617B6A7A691A60002318462C371F
S31500000680BD465DF8047B704780B487B000AFF86064
S315000006900B467A607B817B891B0A9BB2DBB25B01CE
S315000006A003F1804303F500237B617B695B68C3F339
S315000006B00F439AB27B681A80002318461C37BD4642
S315000006C05DF8047B704780B487B000AFF8600B46D6
S315000006D07A607B817B891B0A9BB2DBB25B0103F1EB
S315000006E0804303F500237B617B695B68C3F30F439B
S315000006F07B827B89DBB2012202FA03F33B827A8A90
S315000007003B8A13409BB23A8A9A4203D17B68012204
S315000007101A7002E07B6800221A70002318461C3704
S31500000720BD465DF8047B704780B487B000AFF860C3
S31500000730084611461A4603467B810B463B81134603
S31500000740FB803A89FB881340FB82B7F90830DB430C
S315000007501AB2B7F9063013401BB2BB827B891B0A5B
S315000007609BB2DBB25B0103F1804303F500233B61DF
S31500000770BB8A1A04FB8A1A433B69DA6000231846CF
S315000007801C37BD465DF8047B704780B584B000AF6A
S3150000079078600B467B8013467B707B887B817B89E8
S315000007A023F0FF037B817B893B810023FB810023B0
S315000007B0BB817B78012B06D17B88DBB2012202FA52
S315000007C003F3FB8105E07B88DBB2012202FA03F327
S315000007D0BB817B78BA89F989388900F030F8002323
S315000007E018461037BD4680BD80B584B000AF78602E
S315000007F0786800F0A5F87B68BB60FFF7BBFD0023B7
S31500000800FB8111E0BB685A68FB89DB0013449888BA
S31500000810BB685A68FB89DB0013441B68194600F065
S3150000082053F8FB890133FB81BB681B88FA899A421E
S31500000830E8D3FFF7CFFD00BF1037BD4680BD90B4AB
S3150000084084B000AF0446084611461A462346FB808C
S315000008500346BB800B467B8013467B700023FB6000
S31500000860FB881B0A9BB2DBB25B0103F1804303F5F5
S315000008700023BB60BB68DB68FB607B78012B0DD176
S31500000880BB88FA681343FB607B881B046FEA13433B
S315000008906FEA0343FA681340FB600CE07B881B0495
S315000008A0FA681343FB60BB886FEA03436FEA13439E
S315000008B0FA681340FB60BB68FA68DA6000BF10375D
S315000008C0BD4690BC7047FFFF80B483B000AF0346BF
S315000008D03960FB803B6803F48033002B1CD017493A
S315000008E0FB881B0A9BB21A46FB88DBB212011A442C
S315000008F051F822306FF3104341F822300F48FB883D
S315000009001B0A9BB21946FB88DBB23A6822F4803296
S3150000091009010B4440F823200849FB881B0A9BB2B7
S315000009201A46FB88DBB2120113443A6841F82320C9
S3150000093000BF0C37BD465DF8047B704700080840D1
S3150000094080B586B000AF78600023FB730023BB73CD
S3150000095000237B6139E000233B6130E07B685A6805
S315000009607B69DB0013449A8829493B6931F81330C7
S315000009709A4221D17B685A687B69DB0013441B6865
S3150000098003F0F853BB60BB68B3F1807F03D0BB684C
S31500000990B3F1106F08D101223B6902FA03F3DAB210
S315000009A0FB7B1343FB7307E001223B6902FA03F367
S315000009B0DAB2BB7B1343BB733B6901333B613B69D3
S315000009C0022BCBD97B6901337B617B681B881A4676
S315000009D07B699342BFD3012000F058FB0D4B93F87F
S315000009E0BB347B737A7BFB7B13437B73BB7BDB4321
S315000009F0DAB27B7B13407B73064A7B7B82F8BB347F
S31500000A00012000F0F3FA00BF1837BD4680BD00BFD5
S31500000A10A014000000E0014080B400AF0C4B01229E
S31500000A20A3F8042100BF0A4BB3F804319BB2002B94
S31500000A30F9D1074B0122A3F80021064B01229A6047
S31500000A40044B01221A6000BFBD465DF8047B704767
S31500000A5000C001400070004080B483B000AF0B4B73
S31500000A6093F82630DBB27B60094A7B6852F8233064
S31500000A70064A126AC2F30262D2B2D340054A136032
S31500000A8000BF0C37BD465DF8047B704700E00140AF
S31500000A900C0000209800002080B500AF074B032211
S31500000AA083F81C21064B052283F82620044B054AB1
S31500000AB01A62FFF7D1FF00BF80BD00BF00C0014032
S31500000AC000E001402112012080B500AF104B114A11
S31500000AD01A600F4B104A5A600D4B4FF400429A6051
S31500000AE00B4B0E4ADA600A4B4FF400421A61084B70
S31500000AF00B4A5A61064BDA6813469B001344DB0027
S31500000B005B085B08024A9361FFF7A6FF00BF80BD42
S31500000B100C000020002D310100127A0000366E0113
S31500000B2000C2EB0B80B582B000AF494B4AF20352CC
S31500000B30A3F8FE23FFF770FFFFF7C6FF444B002222
S31500000B4083F81324424B092283F8A220404B93F8E2
S31500000B508034DBB2002B08D13D4B012283F8802480
S31500000B60012140F2C44000F0CDF8394B002283F851
S31500000B708124374B002283F88024354B002283F8EA
S31500000B80322000BF324B93F83C30C3F3C003DBB2D4
S31500000B90012BF7D12E4B42F20172A3F848202C4BC1
S31500000BA0002283F84A202A4B43F202121A85284B68
S31500000BB0002283F82A2000BF254B93F83C30C3F36C
S31500000BC04013DBB2012BF7D1FFF766FF204B012262
S31500000BD083F830201E4B012283F8522005233B71F7
S31500000BE000237B713B1D184600F034F8184A92F832
S31500000BF0763043F0400382F8763000BF144B93F80A
S31500000C007630C3F3C013DBB2012BF7D1104B0322AE
S31500000C1083F86E200E4BC62283F876200C4A92F893
S31500000C2076306FF3861382F8763000BF084B93F860
S31500000C307630C3F3C013DBB2002BF7D1044B4FF46D
S31500000C402542A3F8FE2300BF0837BD4680BD00BF7E
S31500000C5000E0014080B485B000AF78601E4BB3F869
S31500000C60FE33FB811C4B4AF20352A3F8FE231A4AB9
S31500000C7092F8753043F0400382F8753000BF164B8A
S31500000C8093F87530C3F3C013DBB2012BF7D1124AC8
S31500000C907B685B7882F86D307B681B780E4A43F080
S31500000CA04003DBB282F875300B4A7B681B7882F80A
S31500000CB0753000BF084B93F87530C3F3C013DBB231
S31500000CC0002BF7D1044AFB89A2F8FE3300BF143784
S31500000CD0BD465DF8047B704700E0014080B483B0F8
S31500000CE000AF786000BF0C37BD465DF8047B7047E7
S31500000CF080B485B000AFF860B9607A603B6000BE32
S31500000D00FEE7FFFF2DE9B04F90B000AFF861B96183
S31500000D100023FB63FB69BA6902FB03F3BB63504B19
S31500000D201B687B634F4A7B6BB2FBF3F33B63BB6B86
S31500000D3000223B617A61D7E904234FF000004FF0AF
S31500000D400001590141EAD261500102460B46396958
S31500000D50B2EB0108796963EB01094FF000024FF02D
S31500000D6000034FEA890343EA98734FEA88029046E4
S31500000D709946D7E904120B4618EB03033B6013466A
S31500000D8049EB03037B604FF000024FF00003D7E905
S31500000D9000894946CB00414643EA51734146CA00A1
S31500000DA0C7E90A23D7E90A23012B08D2BA6A3B6BA3
S31500000DB0B2FBF3F37B627B6A9B08FB6344E03B6B0D
S31500000DC09B00BA6BB2FBF3F3BB63BB6B0022BB6049
S31500000DD0FA60D7E9028942464B464FF000004FF0D1
S31500000DE00001590141EAD261500102460B464146D3
S31500000DF0541A494663EB01054FF000024FF0000319
S31500000E00AB0043EA9473A20014461D46434614EB16
S31500000E10030A4B4645EB030B4FF000024FF000036D
S31500000E204FEACB0343EA5A734FEACA0292469B46FD
S31500000E30C7E90AABD7E90A23012B02D2BB6AFB63D7
S31500000E4002E04FF0FF33FB63FB6B002B02D0F86B25
S31500000E5000F00AF800BF4037BD46BDE8B08F00BFBE
S31500000E609800002000CA9A3BA0F101000028FBD19F
S31500000E70704700BF80B582B000AF0346FB71FB79B7
S31500000E80074A52F82330002B06D0FB79044A52F861
S31500000E902330FA791046984700BF0837BD4680BD13
S31500000EA04C00002080B582B000AF104BB3F8403143
S31500000EB0BB800023FB710EE0BA88FB7922FA03F3AC
S31500000EC003F00103002B03D0FB791846FFF7D2FF8E
S31500000ED0FB790133FB71FB790F2BEDD9034ABB88F4
S31500000EE0A2F8303100BF0837BD4680BD0060004023
S31500000EF080B58AB000AF032000F0C8F8364B6FF01B
S31500000F00FF029A643B1D0C22FF21184600F09BF954
S31500000F1000237B6221E0314A7B6A32F81330002BD2
S31500000F2018D07B6A5B097B617B6A03F01F033B6118
S31500000F307B699B0028333B4453F8242C01213B69F1
S31500000F4001FA03F3DB431A407B699B0028333B44D9
S31500000F5043F8242C7B6A01337B627B6A5F2BDAD9E8
S31500000F601F4BBB6100233B6218E03B6A9B00BA69DA
S31500000F701A443B6A9B0028333B4453F8243C1360D5
S31500000F8018493B6A9B0028333B4453F8242C3B6AA0
S31500000F90A03341F823203B6A01333B623B6A022BB4
S31500000FA0E3D9032000F022F80023FB610CE00B4A92
S31500000FB0FB6932F813300C4A1946FB69C03342F814
S31500000FC02310FB690133FB61FB695F2BEFD900BF7F
S31500000FD000BF2837BD4680BD00800040A814000031
S31500000FE07080004000E100E00060004080B487B0FF
S31500000FF000AF0346FB7100237B61EFF31083FB60B8
S31500001000FB687B6101233B613B6983F3108800BF6A
S31500001010FB791A4A32F813309BB2002B09D0FB79C0
S31500001020164A32F8132092B2013A91B2134A22F8C4
S315000010301310FB79114A32F813309BB2002B11D1F1
S315000010400F4BB3F8FE339AB20E4B13439AB2FB79A9
S315000010500D4931F81330DB439BB2094913409BB26B
S31500001060A1F8FE337B69BB60BB6883F3108800BFC1
S3150000107000BF1C37BD465DF8047B7047900000201A
S3150000108000E0014000A5FFFF6815000080B487B0AE
S3150000109000AF0346FB7100237B61EFF31083FB6017
S315000010A0FB687B6101233B613B6983F3108800BFCA
S315000010B0FB79164A32F813309BB2002B0FD1144B32
S315000010C0B3F8FE339AB2FB79124931F81330134361
S315000010D09AB20F49104B13439BB2A1F8FE33FB792A
S315000010E00A4A32F8132092B2013291B2074A22F824
S315000010F013107B69BB60BB6883F3108800BF00BF19
S315000011001C37BD465DF8047B704700BF9000002089
S3150000111000E001406815000000A5FFFF80B500AFA4
S3150000112000F00CF8FFF702F9FEE780B400AF00BE4E
S3150000113000BFBD465DF8047B7047FFFF80B584B0F5
S3150000114000AF2F4B4FF47002C3F888202C4B2D4A6A
S315000011509A600020FFF7D4F8FFF7E4FC0120FFF7C0
S31500001160CFF8294B3B603B6883F30A8800BF274AC8
S31500001170274BD31A1A460021254800F064F8254A61
S31500001180254BD31A1A462549234800F04FF8244A1E
S31500001190244BD31A9B107B600023FB6007E0214A97
S315000011A0FB6852F823309847FB680133FB60FA6806
S315000011B07B689A42F3DBFFF74FFC0320FFF766FFDD
S315000011C00023BB6009E0184ABB6808334FF6FF717D
S315000011D022F81310BB680133BB60BB68082BF2D939
S315000011E00320FFF703FF0220FFF78AF8FFF780FED0
S315000011F00020FFF773FD00BF1037BD4680BD00BF5E
S3150000120000ED00E000000000A00000209C0000208F
S31500001210280000200C0000200000002074150000AB
S315000012200800002004000020000D08400A44431E68
S31500001230914200D1704710B511F8014B914203F865
S31500001240014FF9D110BD02440346934200D17047C5
S3150000125003F8011BF9E7FFFF00000004342E302ECF
S31500001260300000004275696C7420776974682052FA
S31500001270656E6573617320416476616E6365642093
S31500001280466C657869626C6520536F667477617227
S3150000129065205061636B6167652076657273696F5F
S315000012A06E20342E302E3000F8B500BFF8BC08BCD6
S315000012B09E467047F8B500BFF8BC08BC9E4670470E
S315000012C0286C6564203D3D204253505F494F5F5076
S315000012D04F52545F30345F50494E5F303029207C86
S315000012E07C20286C6564203D3D204253505F494F69
S315000012F05F504F52545F30345F50494E5F30332950
S31500001300207C7C20286C6564203D3D204253505F44
S31500001310494F5F504F52545F30345F50494E5F30F3
S31500001320342900002E2E2F7372632F7573725F6C33
S3150000133065642F7573725F6C65642E630000000030
S31500001340286C6576656C203D3D204253505F494FC1
S315000013505F4C4556454C5F4C4F5729207C7C2028D6
S315000013606C6576656C203D3D204253505F494F5F6A
S315000013704C4556454C5F4849474829007573725F8E
S315000013806C65645F636F6E74726F6C007573725F09
S315000013906C65645F636865636B5F6F6E5F6C6576D3
S315000013A0656C00FF286B6579203D3D204253505FF8
S315000013B0494F5F504F52545F30305F50494E5F3057
S315000013C03429207C7C20286B6579203D3D204253C2
S315000013D0505F494F5F504F52545F30305F50494E17
S315000013E05F303529000000002E2E2F7372632F7593
S315000013F073725F6B65792F7573725F6B65792E6398
S3150000140000FFFFFF7573725F6B65795F63686563E5
S315000014106B5F646F776E5F6C6576656C00FFFFFFD0
S3150000142044000020641400006C140000000000005A
S31500001430040000000000000005000000000001009C
S31500001440080100000000010000030000050C000078
S3150000145000040000050C000003040000050C000059
S3150000146004040000070000002C1400003D040000E6
S3150000147065040000850400009F040000C706000004
S315000014808B070000E5040000A90500001706000010
S3150000149089060000290700000D0500004705000029
S315000014A0020403040404FFFF000000000000000023
S315000014B00000000000000000000000000000000026
S315000014C00000000000000000000000000000000016
S315000014D00000000000000000000000000000000006
S315000014E000000000000000000000000000000000F6
S315000014F000000000000000000000000000000000E6
S3150000150000000000000000000000000000000000D5
S3150000151000000000000000000000000000000000C5
S3150000152000000000000000000000000000000000B5
S3150000153000000000000000000000000000000000A5
S315000015400000000000000000000000000000000095
S315000015500000000000000000000000000000000085
S31500001560000000000000000001000200080010005A
S309000015700000000071
S3110000157401010000A5000000810000003D
S3150100A100FFFFFFFFFFFFFFFFFFFFFFFFFFFFFFFF58
S3150100A110FFFFFFFFFFFFFFFFFFFFFFFFFFFFFFFF48
S3150100A120FFFFFFFFFFFFFFFFFFFFFFFFFFFFFFFF38
S30D0100A130FFFFFFFFFFFFFFFF28
S3150100A200FFFDFFFFFFFFFFFFFFFFFFFFFFFFFFFF59
S3150100A210FFFFFFFFFFFFFFFFFFFFFFFFFFFFFFFF47
S3150100A220FFFFFFFFFFFFFFFFFFFFFFFFFFFFFFFF37
S3150100A230FFFFFFFFFFFFFFFFFFFFFFFFFFFFFFFF27
S3150100A240FFFFFFFFFFFFFFFFFFFFFFFFFFFFFFFF17
S3150100A250FFFFFFFFFFFFFFFFFFFFFFFFFFFFFFFF07
S3150100A260FFFFFFFFFFFFFFFFFFFFFFFFFFFFFFFFF7
S3150100A270FFFFFFFFFFFFFFFFFFFFFFFFFFFFFFFFE7
S3150100A280F8F8FFFFFFFFFFFFFFFFFFFFFFFFFFFFE5
S3150100A290FFFFFFFFFFFFFFFFFFFFFFFFFFFFFFFFC7
S3150100A2A0FFFFFFFFFFFFFFFFFFFFFFFFFFFFFFFFB7
S3150100A2B0FFFFFFFFFFFFFFFFFFFFFFFFFFFFFFFFA7
S3110100A2C0FFFFFFFFFFFFFFFFFFFFFFFF97
S7050000111DCC
